:100000000C941B010C9443010C9443010C94430188
:100010000C9443010C9443010C9443010C94430150
:100020000C9443010C9443010C94D0050C949E0451
:100030000C9443010C9443010C9443010C94430130
:100040000C9443010C9443010C9443010C94430120
:100050000C9443010C9443010C9443010C9444060A
:100060000C9443010C9443010C9443010C94430100
:100070000C9443010C9443010C9443010C944301F0
:100080000C9443010C9443010C9443010C944301E0
:100090000C9443010C9443010C9443010C944301D0
:1000A0000C9443010C9443010C944301080B00028F
:1000B0000202010009040000010202000005240000
:1000C0001001052401010104240206052406000193
:1000D0000705810310004009040100020A00000026
:1000E000070502024000000705830240000000C12E
:1000F0008081C112010002020000404123418000C2
:1001000001010200011201000200000040412341F0
:100110008000010102000141726475696E6F204C1C
:100120004C430041726475696E6F2059756E00040E
:1001300003090400000000000000002A2B28000032
:1001400000000000000000000000000000000000AF
:100150000000002C9EB4A0A1A2A434A6A7A5AE3690
:100160002D3738271E1F20212223242526B333B6FE
:100170002EB7B89F8485868788898A8B8C8D8E8FD1
:10018000909192939495969798999A9B9C9D2F31D4
:1001900030A3AD350405060708090A0B0C0D0E0F38
:1001A000101112131415161718191A1B1C1DAFB1B4
:1001B000B0B500090402000103000000092101019B
:1001C00000012265000705840340000105010902C2
:1001D000A1010901A10085010509190129031500E3
:1001E00025019503750181029501750581030501BE
:1001F0000930093109381581257F75089503810675
:10020000C0C005010906A1018502050719E029E71B
:100210001500250175019508810295017508810376
:1002200095067508150025650507190029658100E3
:10023000C0001802650811241FBECFEFDAE0DEBF50
:10024000CDBF11E0A0E0B1E0E6EFF0E102C0059023
:100250000D92A433B107D9F721E0A4E3B1E001C0C6
:100260001D92A33AB207E1F712E0C6E3D2E004C060
:100270002297FE010E947508C233D107C9F70E9478
:1002800036020C9479080C94000040E855E260E0D6
:1002900070E084E391E00C9412026AE071E084E380
:1002A00091E00C94A2020C944D01CF93DF931F9226
:1002B000CDB7DEB76983DC01ED91FC910280F3815B
:1002C000E02D41E050E0BE016F5F7F4F09950F9038
:1002D000DF91CF910895CF93DF93EC018C859D85BD
:1002E00097FF05C082E00E9473039D878C878C85F1
:1002F0009D85DF91CF91089583E00C94C605FC01A4
:100300008485958597FD06C082E00E941B0390E0DE
:100310000196089582E00E941B0390E00895FC017D
:100320008485958597FD05C02FEF3FEF358724879E
:10033000089582E00C947303CF93DF93EC018091D6
:100340000701882331F083E00E94A40318161906E0
:1003500034F081E090E09B838A8380E090E0DF913D
:10036000CF910895FC0120812E5F208342E450E06C
:100370006CEA70E080E80C943F04FC01818190817C
:10038000913A59F4813209F03CC047E050E060E016
:1003900071E080E00E943F0443C0913291F58032C9
:1003A00039F467E070E080E091E00E94700406C0DC
:1003B000823209F035C0828180930701809100016B
:1003C00090910101A0910201B0910301803B944002
:1003D000A105B105C1F48091070180FD14C087E734
:1003E00097E790930108809300082BE088E190E064
:1003F0000FB6F894A895809360000FBE209360001C
:100400000FC080E0089588E10FB6F89480936000F3
:10041000109260000FBEA89510920108109200087B
:1004200081E008952FEF3FEFFC0135872487089581
:10043000109237011092360188EE93E0A0E0B0E010
:100440008093380190933901A0933A01B0933B0116
:1004500089E191E090933501809334018FEF9FEF14
:100460009093410180934001089508950E94D90618
:100470000E94350284E891E00E9426060E94450110
:10048000C0E0D0E00E9453012097E1F30E940000F9
:10049000F9CFCF92DF92EF92FF920F931F93CF93FA
:1004A000DF936C017A01EB01E60EF71E00E010E02D
:1004B000CE15DF0561F06991D601ED91FC910190B7
:1004C000F081E02DC6010995080F191FF1CFC80171
:1004D000DF91CF911F910F91FF90EF90DF90CF9020
:1004E00008956115710581F0DB010D900020E9F799
:1004F000AD0141505109461B570BDC01ED91FC91B8
:100500000280F381E02D099480E090E00895DC0101
:10051000ED91FC910190F081E02D09940F931F93D0
:10052000CF93DF93EC016DE00E9487028C016AE0BB
:10053000CE010E948702800F911FDF91CF911F9102
:100540000F9108950F931F93CF93DF93EC010E94B7
:1005500071028C01CE010E948E02800F911FDF91EB
:10056000CF911F910F910895409188015091890179
:10057000209186013091870142175307B4F490917E
:10058000E8009570E1F39091E80092FD19C0809326
:10059000F100809188019091890101968F739927CC
:1005A000892B19F48EEF8093E80080918801909157
:1005B00089010196909389018093880181E00895D3
:1005C00080E00895FF920F931F93CF93DF938C01E8
:1005D00088E10E94B40283E00E94B402C0E0D0E04F
:1005E000F801EC0FFD1F84910E94B402F82E80E008
:1005F0000E94B4028F2121F02196CB30D10581F7E2
:10060000DF91CF911F910F91FF900895615030F0CD
:100610002091F100FC0120830196F8CF289884E610
:1006200080938B0108952FB7FC012083F8946770A5
:100630006093E9000895CF93DF931F92CDB7DEB7A3
:10064000682FCE0101960E9413038091F2009981D8
:100650009FBF0F90DF91CF910895FF920F931F934B
:10066000CF93DF9300D0CDB7DEB7F62E8A019091FD
:100670008A01992311F057FF03C08FEF9FEF2BC022
:10068000682FCE0101967A830E9413038091F200B5
:1006900090E0A8017A81801791070CF4AC01EF2D4E
:1006A000F72FF40E84E6FE1639F0289880938B011C
:1006B0009091F1009193F7CF4115510521F0809170
:1006C000F200882321F089818FBFCA0104C08BE624
:1006D0008093E800F8CF0F900F90DF91CF911F919A
:1006E0000F91FF900895CF93DF931F92CDB7DEB7A0
:1006F00041E050E0BE016F5F7F4F0E942D030197E4
:1007000019F4898190E002C08FEF9FEF0F90DF9185
:10071000CF910895CF93DF931F92CDB7DEB7682FA7
:10072000CE0101960E9413039091E800892F8072F8
:1007300095FF04C09091F20080E4891B99819FBFCE
:100740000F90DF91CF9108956F927F928F929F9239
:10075000AF92BF92CF92DF92EF92FF920F931F93CF
:10076000CF93DF931F92CDB7DEB7782E7B01C42ED7
:10077000B52E80918A01882369F0042F152F8AEF06
:10078000D82E872D8072982E9AE3A92E872D8074FB
:10079000882E11C08FEF9FEF57C0872D0E948A03CC
:1007A000682E81110CC0DA94A9F361E070E080E05A
:1007B00090E00E94B1060115110579F73BC0282F82
:1007C00030E0021713070CF4602E672DCE0101965E
:1007D0000E9413038091E80085FF29C0262D30E098
:1007E000021B130B992039F06A948FEF6816B1F051
:1007F0001092F100F9CFF701862D77FE07C08150E6
:1008000058F094919093F1003196F9CF815020F0F7
:1008100091919093F100FACFE20EF31E8091E800DF
:1008200085FF0FC00115110511F481100AC08981DF
:100830008FBFC1CF5D9884E680938C018C2D9B2D5A
:1008400003C0A092E800F3CF0F90DF91CF911F91EA
:100850000F91FF90EF90DF90CF90BF90AF909F905F
:100860008F907F906F9008951092E9001092890107
:100870001092880190938701809386010895CF920A
:10088000DF92FF920F931F93CF93DF9300D0CDB7EA
:10089000DEB7F82E8A016B0101151105B1F0F601E2
:1008A000F7FE02C0849101C0808149835A830E946F
:1008B000B40201501109FFEFCF1ADF0A49815A81B2
:1008C0008111EACF8FEF9FEF01C0CA010F900F9007
:1008D000DF91CF911F910F91FF90DF90CF900895FE
:1008E0001F93CF93DF931F92CDB7DEB7162F2091C2
:1008F000E80022FFFCCF612F79830E9406038BEF73
:100900008093E800812F7981972F0F90DF91CF910D
:100910001F910895CF93DF931F92CDB7DEB7198251
:10092000CE0101960E94B201CE0101960E944D07B0
:10093000898190E00F90DF91CF9108951F920F92DF
:100940000FB60F921124EF92FF920F931F932F93E4
:100950003F934F935F936F937F938F939F93AF9347
:10096000BF93EF93FF93CF93DF93CDB7DEB762973B
:10097000DEBFCDBF1092E9008091E80083FFE9C09F
:1009800068E0CE010A960E94060382EF8093E80099
:100990009A8597FF05C08091E80080FFFCCF03C0D7
:1009A0008EEF8093E800892F807609F0B7C08B85A1
:1009B000811105C01092F1001092F100C3C0282FE0
:1009C0002D7F213009F4BEC0853049F48091E800C4
:1009D00080FFFCCF8C8580688093E300B3C08630B5
:1009E00009F074C02D85E888F988223071F580E01F
:1009F00090E02A8B0E9434040E948A0499E08E01C0
:100A00000F5F1F4FF801392F11923A95E9F799833B
:100A10002A892A8391E09E8390E898879AEF9987A4
:100A20002091880130918901275F3F4F3C832B83C0
:100A30008D83C7010E94340449E050E0B80180E092
:100A40000E943F040E948A047DC0C7012A8B0E9435
:100A500034042A89223241F482E290E00E9458074D
:100A6000892B09F06FC072C0213069F48889998997
:100A7000089711F42093850180918501811116C09A
:100A800065E071E018C0233009F060C08C858823D0
:100A900081F0823019F483E291E005C0813009F0E1
:100AA00055C087E191E00E94E2024AC063EF70E026
:100AB00002C06FE271E06115710509F447C0FB01E6
:100AC000449150E080E80E943F043CC0873009F424
:100AD0003DC0883021F481E08093F10033C089303B
:100AE00089F5937099F5EFEEF0E081E021E096E36F
:100AF0008093E9002093EB0034913093EC009093C5
:100B0000ED008F5F3196853099F78EE78093EA008C
:100B10001092EA008C8580938A0114C08889998993
:100B20000E9434048E85811105C0CE010A960E9470
:100B3000BD0106C0823051F4CE010A960E948007A2
:100B4000882321F08EEF8093E80003C081E2809338
:100B5000EB0062960FB6F894DEBF0FBECDBFDF91FB
:100B6000CF91FF91EF91BF91AF919F918F917F9125
:100B70006F915F914F913F912F911F910F91FF9036
:100B8000EF900F900FBE0F901F9018958093E90083
:100B90008091F200882319F08AE38093E800089599
:100BA0001F920F920FB60F9211242F933F934F93E2
:100BB0005F936F937F938F939F93AF93BF93EF93C5
:100BC000FF938091E1001092E10083FF0FC010922B
:100BD000E90091E09093EB001092EC0092E3909387
:100BE000ED0010928A0198E09093F00082FF1DC002
:100BF00083E00E94C60580918C01882339F08091A2
:100C00008C01815080938C01882369F080918B0145
:100C1000882359F080918B01815080938B01811141
:100C200004C0289A02C05D9AF1CFFF91EF91BF9165
:100C3000AF919F918F917F916F915F914F913F9174
:100C40002F910F900FBE0F901F90189510928A0150
:100C500081E08093D70080EA8093D80082E189BD4B
:100C600009B400FEFDCF61E070E080E090E00E94FA
:100C7000B10680E98093D8008CE08093E200109266
:100C8000E000559A209A08951F920F920FB60F9286
:100C900011242F933F938F939F93AF93BF93809192
:100CA0008E0190918F01A0919001B09191013091AE
:100CB0008D0123E0230F2D3720F40196A11DB11DD6
:100CC00005C026E8230F0296A11DB11D20938D01BA
:100CD00080938E0190938F01A0939001B093910126
:100CE0008091920190919301A0919401B09195010E
:100CF0000196A11DB11D8093920190939301A09341
:100D00009401B0939501BF91AF919F918F913F91C5
:100D10002F910F900FBE0F901F9018953FB7F8942A
:100D20008091920190919301A0919401B0919501CD
:100D300026B5A89B05C02F3F19F00196A11DB11D36
:100D40003FBF6627782F892F9A2F620F711D811D53
:100D5000911D42E0660F771F881F991F4A95D1F7B2
:100D60000895CF92DF92EF92FF92CF93DF936B01C2
:100D70007C010E948E06EB01C114D104E104F10450
:100D800089F00E9472080E948E066C1B7D0B683EE3
:100D9000734090F381E0C81AD108E108F108C85106
:100DA000DC4FEACFDF91CF91FF90EF90DF90CF90B3
:100DB0000895789484B5826084BD84B5816084BDD3
:100DC00085B5826085BD85B5816085BDEEE6F0E0C4
:100DD000808181608083E1E8F0E010828081826020
:100DE0008083808181608083E0E8F0E080818160A1
:100DF0008083E1E9F0E0808182608083808181608E
:100E00008083E0E9F0E0808181608083E1ECF0E0C4
:100E10008081846080838081826080838081816022
:100E20008083E3ECF0E0808181608083E0ECF0E09F
:100E3000808182608083E2ECF0E080818160808349
:100E4000EAE7F0E080818460808380818260808333
:100E50008081816080838081806880830895FF9293
:100E60000F931F93CF93DF93EC01F62EE881F98166
:100E70000480F581E02D09958C01E881F9810680D7
:100E8000F781E02D6F2DCE010995C8019927DF91DB
:100E9000CF911F910F91FF900895FC0120812F5F4A
:100EA000208349E150E063EB71E080E80C943F045B
:100EB00045E650E06CEC71E080E80C943F04EF9262
:100EC000FF920F931F93CF93DF931F92CDB7DEB79F
:100ED00089838B017A0141E050E0BE016F5F7F4F53
:100EE00084E00E94A403A701B80184E40E94A40343
:100EF0000F90DF91CF911F910F91FF90EF90089588
:100F0000FC0191818081813A31F481E0913091F04E
:100F1000933089F411C0813271F49B3021F48281C5
:100F20008093090105C09A3031F4828180930801D1
:100F300081E00895089580E0089548E050E082E05F
:100F40000C945F07CF93DF93DC01683818F0E8E773
:100F5000E60F25C0E62FF0E067FF11C0E058F10969
:100F600081E090E001C0880FEA95EAF714969C9121
:100F70001497982B14969C931497E0E010C0ED5CA6
:100F8000FE4FE491EE2309F440C0E7FF08C0149639
:100F90008C911497826014968C931497EF77169621
:100FA0008C9116978E1741F117968C9117978E1783
:100FB00019F118968C9118978E17F1F019968C915B
:100FC00019978E17C9F01A968C911A978E17A1F05F
:100FD0001B968C911B978E1779F080E090E0ED01C5
:100FE000C80FD91F2E81211102C0EE8305C00196C2
:100FF00086309105A1F709C0BD016C5F7F4FCD011F
:101000000E949D0781E090E008C081E090E0139687
:101010009C938E93129780E090E0DF91CF9108959A
:10102000683818F0E8E7E60F25C0E62FF0E067FF24
:1010300012C0E058F10921E030E001C0220FEA952A
:10104000EAF72095DC0114963C911497322314960C
:101050003C93E0E00FC0ED5CFE4FE491EE2329F1FC
:10106000E7FF08C0DC0114962C9114972D7F14968D
:101070002C93EF7720E030E0EE2351F0DC01A20F5B
:10108000B31F16964C9116974E1302C016961C92DB
:101090002F5F3F4F2630310579F7BC016C5F7F4FE2
:1010A0000E949D0781E090E0089580E090E008951F
:1010B000FC0116821782108611861286138614820E
:1010C000BC016C5F7F4F0C949D071092A20110929F
:1010D00099011092980189E291E090939701809391
:1010E000960108950895EE0FFF1F0590F491E02DED
:0610F0000994F894FFCF03
:1010F60000E1000000000000010148656C6C6F20F3
:10110600796F7521000000000055019C017F018F59
:10111600016B017C01000000002F074902A20710A5
:04112600085808005D
:00000001FF
